:100000000C9446000C9458000C9458000C94580022
:100010000C9458000C9458000C9458000C94580000
:100020000C9458000C9458000C9458000C945800F0
:100030000C9458000C9458000C9458000C945800E0
:100040000C9458000C9458000C9458000C945800D0
:100050000C9458000C9458000C9458000C945800C0
:100060000C9458000C9458000C9458000C945800B0
:100070000C9458000C9458000C9458000C945800A0
:100080000C9458000C9458000C94580011241FBE76
:10009000CFEFD0E1DEBFCDBF11E0A0E0B1E001C005
:1000A0001D92A631B107E1F70E9478010C94D301AB
:1000B0000C9400005D9BFECF8CB90895EF92FF92E7
:1000C000CF93DF93E82EE7017E01F92EE70102C00E
:1000D0000E945A0089918823D9F7DF91CF91FF9030
:1000E000EF900895D89AD99810920C0110920D01B2
:1000F00010920E0110920F01C899FECF28E130E056
:10010000D99A80910C0190910D01A0910E01B091AE
:100110000F01880F991FAA1FBB1F80930C0190939A
:100120000D01A0930E01B0930F01D998C89B0BC08D
:100130000196A11DB11D80930C0190930D01A09318
:100140000E01B0930F0121503040D1F6D99A809121
:100150000C0190910D01A0910E01B0910F0120E0D2
:1001600030E040E850E082279327A427B52780930A
:100170000C0190930D01A0930E01B0930F01D9983B
:1001800020911001309111012115310571F48093F6
:10019000120190931301A0931401B093150121E073
:1001A00030E0309311012093100120911201309121
:1001B00013014091140150911501281739074A077E
:1001C0005B0768F4821B930BA40BB50B80930801AB
:1001D00090930901A0930A01B0930B0108C01092FB
:1001E00008011092090110920A0110920B0110925D
:1001F000040110920501109206011092070160910E
:1002000008017091090180910A0190910B010895F4
:1002100082E08ABBD99A81E28A95F1F70000D998E9
:1002200008956F927F928F929F92AF92BF92CF92DA
:10023000DF92EF92FF920F931F933B014C0120E15D
:1002400037E240E050E00E94B1017B018C01822F37
:10025000805D0E945A00F8EEAF2EF3E0BF2EC12C55
:10026000D12CC801B701A60195010E94B101822FCE
:10027000805D0E945A00C401B301A60195010E944D
:10028000B101E4E6EE2EF12C012D112DA80197010C
:100290000E94B101822F805D0E945A00C401B30107
:1002A000A80197010E94B1015AE0E52EF12C012D21
:1002B000112DA80197010E94B101822F805D0E943B
:1002C0005A00C401B301A80197010E94B101862F11
:1002D000805D0E945A001F910F91FF90EF90DF9078
:1002E000CF90BF90AF909F908F907F906F90089528
:1002F0000F931F938FEF87BB88E08AB987E689B990
:100300000E94080101E012E00E947200A2E09695AE
:10031000879577956795AA95D1F7609300017093BB
:10032000010180930201909303010E9411018AE070
:100330000E945A008DE00E945A0080910001909125
:100340000101A0910201B0910301803325E79207DA
:1003500020E0A20720E0B20710F008BBD5CF18BB01
:10036000D3CFA1E21A2EAA1BBB1BFD010DC0AA1FF1
:10037000BB1FEE1FFF1FA217B307E407F50720F00E
:10038000A21BB30BE40BF50B661F771F881F991F89
:100390001A9469F760957095809590959B01AC01D2
:0A03A000BD01CF010895F894FFCFCE
:00000001FF
