:100000000C9446000C9465000C9465000C946500FB
:100010000C9465000C9465000C9465000C946500CC
:100020000C9465000C9465000C9465000C946500BC
:100030000C9465000C9465000C9465000C946500AC
:100040000C9465000C9465000C9465000C9465009C
:100050000C9465000C9465000C9465000C9465008C
:100060000C9465000C9465000C9465000C9465007C
:100070000C9465000C9465000C9465000C9465006C
:100080000C9465000C9465000C94650011241FBE4F
:10009000CFEFD0E1DEBFCDBF12E0A0E0B1E0EAECEF
:1000A000F4E100E00BBF02C007900D92AC32B10743
:1000B000D9F712E0ACE2B2E001C01D92AF32B10755
:1000C000E1F70E9467010C94630A0C94000020E0A1
:1000D00030E0F3E0E6E07CE069E023C042E350E09A
:1000E000F2BBAFE1BEE41197F1F700C00000E2BB44
:1000F000AFE1BEE41197F1F700C0000072BBAFE1C1
:10010000BEE41197F1F700C0000062BBAFE1BEE4AE
:100110001197F1F700C000004150504009F72F5FE0
:100120003F4F28173907D4F212BA089520E030E083
:10013000F9E0ECE076E063E023C042E350E0F2BB9C
:10014000AFE1BEE41197F1F700C00000E2BBAFE100
:10015000BEE41197F1F700C0000072BBAFE1BEE44E
:100160001197F1F700C0000062BBAFE1BEE4119748
:10017000F1F700C000004150504009F72F5F3F4F9A
:1001800028173907D4F212BA08953E9A18BA8FE5A3
:1001900094E00197F1F700C0000087EC86B986B1C2
:1001A00095ED9A95F1F7000081E088BB8FE397E920
:1001B0000197F1F700C0000024B135B1C9010895DD
:1001C0002FEF36E741E0215030404040E1F700C0DA
:1001D000000015BA000094E095BB00C08BBB00C0C6
:1001E00000C0000083E085BB0895EFE9FFE0319790
:1001F000F1F700C0000091E095BB000095E095BBD1
:1002000000C08BBBF2E0FA95F1F700C082E085BB3D
:100210000895FF920F931F93CF93DF93F82E8B01D6
:100220000E94E000CF2DD0E00CC0C039D10519F4F8
:1002300080EC0E94E000F80181918F010E94F5009E
:100240002196F8018081882381F7DF91CF911F915A
:100250000F91FF9008958FEF90E7A2E081509040BA
:10026000A040E1F700C000008CE30E94E00095EDA3
:100270009A95F1F700008FE00E94E000A5EDAA95A5
:10028000F1F7000081E00E94E00087EE97E101971E
:10029000F1F700C0000086E00E94E00008955D9B39
:1002A000FECF8CB90895EF92FF92CF93DF93E82EA3
:1002B000E7017E01F92EE70102C00E944F018991FA
:1002C0008823D9F7DF91CF91FF90EF9008952F9277
:1002D0003F924F925F926F927F928F929F92AF92D6
:1002E000BF92CF92DF92EF92FF920F931F93DF9313
:1002F000CF93CDB7DEB760970FB6F894DEBF0FBED1
:10030000CDBF0FEF07BB04BB0ABB01BB0E942B0193
:1003100088E08AB987E689B908BBCC24DD2421E0CE
:10032000622E712C92E0492E512C8E010F5F1F4FCF
:100330008DE0282E81E0382E0E94C5009C01B90175
:10034000882777FD8095982F0E94E20420E030E016
:1003500040EA5BE30E94E8032BE734E14EE25EE310
:100360000E94E8032DEC3CEC4CEC5DE30E94B703EB
:1003700020E030E048EC52E40E94E8030E9442058D
:100380007B01A60EB71E0894C11CD11C3AE0C3160F
:10039000D10449F4C501B6010E9425074B01CC24C4
:1003A000DD24AA24BB2480911F0190912001A9E1A2
:1003B0008A16910464F081309105A1F48AE090E0FE
:1003C0000E9467005092200140921F010BC08230B2
:1003D000910541F48AE090E00E949600709220011D
:1003E00060921F01C701099683319105E8F400D09E
:1003F00000D000D0EDB7FEB73196ADB7BEB71296BC
:100400001C930E93119720E031E033832283F58211
:10041000E4820E9483078DB79EB706960FB6F894C4
:100420009EBF0FBE8DBF1BC000D000D000D0EDB767
:10043000FEB73196ADB7BEB712961C930E931197C7
:1004400033822282F582E4820E9483072DB73EB771
:100450002A5F3F4F0FB6F8943EBF0FBE2DBFC801B5
:100460000E94530180E8B8010E9409018FEF93EDCB
:10047000A0E381509040A040E1F700C000005CCFB5
:10048000A0E0B0E0E6E4F2E00C945007FC01EA01E1
:100490008081823008F438C1DB019C91923008F4ED
:1004A00030C1843059F4943009F02EC191811196F5
:1004B0008C911197981709F021C126C1943009F445
:1004C00020C19230B1F4823009F01EC1CA01AF01DF
:1004D00028E0DA010D90AD01DC010D92CD01215033
:1004E000C1F7DB0111968C91119791818923898342
:1004F0000AC1823009F405C1C280D380DB011296A3
:100500006D907C9013972481358146815781149694
:10051000ED90FD900D911C911797C60186199709D2
:100520005C0197FF04C0AA24BB24A81AB90AB0E250
:10053000AB16B1040CF061C0181619066CF5370142
:1005400048010A2C04C096948794779467940A947F
:10055000D2F781E090E0A0E0B0E00A2C04C0880F60
:10056000991FAA1FBB1F0A94D2F70197A109B109CD
:100570008E219F21A023B123EE24FF248701E39441
:100580000097A105B10519F4EE24FF248701E628A0
:10059000F728082919293CC00097D1F1CA0CDB1CA7
:1005A00039014A010A2C04C0969487947794679481
:1005B0000A94D2F781E090E0A0E0B0E00A2C04C0F9
:1005C000880F991FAA1FBB1F0A94D2F70197A10990
:1005D000B10982239323A423B52321E030E040E036
:1005E00050E00097A105B10519F420E030E0A90121
:1005F00026293729482959290BC06C147D0424F475
:10060000EE24FF24870104C0630120E030E0A9014B
:100610008181FB019181891709F445C0882349F044
:10062000D801C701821B930BA40BB50B9C01AD0134
:1006300004C02E193F09400B510B57FD04C019820D
:10064000DB82CA820BC081E08983DB82CA8250953B
:100650004095309521953F4F4F4F5F4F2C833D8301
:100660004E835F830DC0880F991FAA1FBB1F8C8309
:100670009D83AE83BF838A819B8101979B838A83FD
:100680008C819D81AE81BF819C01AD0121503040A4
:10069000404050402F3FEFEF3E07EFEF4E07EFE3B4
:1006A0005E0708F30BC08983DB82CA822E0D3F1DD3
:1006B000401F511F2C833D834E835F8383E08883DB
:1006C0002C813D814E815F8157FF1DC0DA01C90138
:1006D00081709070A070B0705695479537952795AA
:1006E000822B932BA42BB52B8C839D83AE83BF834E
:1006F0008A819B8101969B838A8305C0E3E2F1E0B6
:1007000003C0FB0101C0FE01CF01CDB7DEB7EEE0B3
:100710000C946C07A0E2B0E0E0E9F3E00C94580719
:1007200069837A838B839C832D833E834F83588791
:1007300089E0E82EF12CEC0EFD1ECE010196B701EA
:100740000E94BC068E010F5E1F4FCE010596B801B8
:100750000E94BC06C701B801AE01475E5F4F0E9410
:1007600040020E94EE05A096E6E00C947407A0E219
:10077000B0E0EDEBF3E00C94580769837A838B8348
:100780009C832D833E834F8358878E01075F1F4FC5
:10079000CE010196B8010E94BC0691E1E92EF12C30
:1007A000EC0EFD1ECE010596B7010E94BC068A899B
:1007B00091E089278A8BC801B701AE01475E5F4F80
:1007C0000E9440020E94EE05A096E6E00C94740799
:1007D000A0E2B0E0EEEEF3E00C944C0769837A837C
:1007E0008B839C832D833E834F835887CE01019654
:1007F000BE01675F7F4F0E94BC06CE010596BE0119
:100800006F5E7F4F0E94BC069985923078F089898F
:100810008230C0F0943019F4823041F4CBC084307F
:1008200019F4923079F4C6C0923051F481E02A85EF
:100830009A89291709F480E08A87CE010996BCC0FD
:10084000823051F481E02A859A89291709F480E0E1
:100850008A8BCE014196B0C06D847E848F84988847
:10086000ED88FE880F89188DE0E2F0E080E090E0EE
:10087000DC01AA24BB24650120E030E0A901B3011A
:100880006170707061157105D1F02E0D3F1D401F14
:10089000511F15012601280E391E4A1E5B1E81E0DC
:1008A00090E0A0E0B0E02E153F054007510718F09A
:1008B00080E090E0DC01820D931DA41DB51DAA0C03
:1008C000BB1CCC1CDD1C17FF09C061E0262E312C9F
:1008D000412C512CA228B328C428D528319749F09F
:1008E000EE0CFF1C001F111F969487947794679459
:1008F000C6CF6B897C89EB85FC856E0F7F1F6E5F91
:100900007F4F7C8F6B8F61E0EA857A89E71709F466
:1009100060E06A8F6B8D7C8D10C0FC01E170F0701F
:10092000309729F056954795379527955068B69595
:10093000A795979587956F5F7F4FB7FDEECF0CC05A
:10094000880F991FAA1FBB1F57FD8160220F331FFD
:10095000441F551F615070408030E0E09E07E0E08A
:10096000AE07E0E4BE0760F36B8F7C8F6FE7E62E87
:10097000F12C012D112DE822F9220A231B2360E41A
:10098000E616F1040105110561F487FD0AC0211581
:1009900031054105510529F0805C9F4FAF4FBF4F96
:1009A00080788D8F9E8FAF8FB8A383E0898FCE0123
:1009B000499602C083E291E00E94EE05A096E2E132
:1009C0000C946807A8E0B0E0E8EEF4E00C94580757
:1009D0007B018C0183E08983D801C7018827B7FD9B
:1009E00083959927AA27BB27282F8A83E114F1042E
:1009F0000105110519F482E0898337C08EE190E08A
:100A00009C838B83222389F080E0E81680E0F8063F
:100A100080E0080780E8180769F110950095F094C8
:100A2000E094E11CF11C011D111DED82FE820F837B
:100A30001887C801B7010E9494059C0121503040DD
:100A40001216130694F4022E04C0EE0CFF1C001FB5
:100A5000111F0A94D2F7ED82FE820F8318878EE170
:100A600090E0821B930B9C838B83CE0101960E94A6
:100A7000EE0504C060E070E080E09FEC2896E6E0C0
:100A80000C947407ACE0B0E0E8E4F5E00C945C078B
:100A900069837A838B839C83CE010196BE016B5F51
:100AA0007F4F0E94BC068D81823081F1823070F1CF
:100AB000843021F48E81882369F10AC02F81388522
:100AC00037FD24C06E812F3131053CF0662311F1D2
:100AD00020E030E040E050E821C08EE190E0821B51
:100AE000930B29853A854B855C8504C056954795BF
:100AF000379527958A95D2F7662381F050954095D2
:100B0000309521953F4F4F4F5F4F08C020E030E0B8
:100B1000A90104C02FEF3FEF4FEF5FE7B901CA0112
:100B20002C96E2E00C947807AF92BF92CF92DF92BE
:100B3000EF92FF920F931F937B018C0180E0E816E8
:100B400080E0F80681E0080780E0180758F4EFEF2E
:100B5000EE16F1040105110509F090F480E090E033
:100B6000DC0117C0F0E0EF16F0E0FF06F0E00F0741
:100B7000F1E01F0750F480E190E0A0E0B0E009C090
:100B800088E090E0A0E0B0E004C088E190E0A0E060
:100B9000B0E020E230E040E050E0281B390B4A0B87
:100BA0005B0B5701680104C0D694C794B794A7940F
:100BB0008A95D2F7D601C501855D9E4FFC018081E3
:100BC000281B310941095109C9011F910F91FF905B
:100BD000EF90DF90CF90BF90AF900895EF92FF928B
:100BE0000F931F93CF93DF93FC01248135814681BE
:100BF000578161818081823020F44061EFEFF0E025
:100C0000A3C0843009F49BC0823009F492C021153E
:100C100031054105510509F48FC00280F381E02DB3
:100C20008FEFE238F8070CF05AC0C2E8DFEFCE1BB6
:100C3000DF0BCA31D1056CF579018A010C2E04C095
:100C400016950795F794E7940A94D2F781E090E01F
:100C5000A0E0B0E00C2E04C0880F991FAA1FBB1F94
:100C60000A94D2F70197A109B10982239323A423FF
:100C7000B52321E030E040E050E00097A105B10548
:100C800019F420E030E0A9012E293F29402B512BF7
:100C900003C020E030E0A901DA01C9018F7790702C
:100CA000A070B07080349105A105B10539F427FF1B
:100CB00009C0205C3F4F4F4F5F4F04C0215C3F4F46
:100CC0004F4F5F4FE1E0F0E0203080E0380780E0F8
:100CD000480780E4580728F5E0E0F0E022C0E0385B
:100CE000F1056CF5E158FF4FDA01C9018F7790707B
:100CF000A070B07080349105A105B10539F427FFCB
:100D000009C0205C3F4F4F4F5F4F04C0215C3F4FF5
:100D10004F4F5F4F57FF05C056954795379527951D
:100D2000319687E056954795379527958A95D1F75F
:100D30000BC0E0E0F0E005C0E0E0F0E005C0EFEF60
:100D4000F0E020E030E0A9018E2F87958827879575
:100D5000942F9F77679566276795E695E22EA92FD2
:100D6000A82BFE2FF62B622F732F8A2F9F2FCDB724
:100D7000DEB7E6E00C947407DC01FB012C911196C0
:100D80003C91119712968C911297482F4F7750E013
:100D9000982F991F9927991F13966C911397862F57
:100DA000880F892B90E0661F6627661F6183009776
:100DB00039F5211531054105510511F482E029C0AD
:100DC00082E89FEF9383828367E0220F331F441FE3
:100DD000551F6A95D1F783E0808309C0220F331F26
:100DE000441F551F82819381019793838283203012
:100DF00080E0380780E0480780E4580778F320C097
:100E00008F3F910579F4211531054105510519F4FC
:100E100084E08083089544FF03C081E0808310C094
:100E200010820EC08F5790409383828383E080832B
:100E300087E0220F331F441F551F8A95D1F7506456
:100E40002483358346835783089597FB092E07260D
:100E50000AD077FD04D00CD006D000201AF470958B
:100E600061957F4F0895F6F7909581959F4F08956E
:100E7000AA1BBB1B51E107C0AA1FBB1FA617B707C0
:100E800010F0A61BB70B881F991F5A95A9F78095DC
:100E90009095BC01CD0108952F923F924F925F92A1
:100EA0006F927F928F929F92AF92BF92CF92DF927A
:100EB000EF92FF920F931F93CF93DF93CDB7DEB7DF
:100EC000CA1BDB0B0FB6F894DEBF0FBECDBF099473
:100ED0002A88398848885F846E847D848C849B84CA
:100EE000AA84B984C884DF80EE80FD800C811B81D8
:100EF000AA81B981CE0FD11D0FB6F894DEBF0FBE07
:100F0000CDBFED0108950F931F93DF93CF93CDB71E
:100F1000DEB72E970FB6F894DEBF0FBECDBF0D899A
:100F20001E8986E08C831A8309838FEF9FE79E8357
:100F30008D839E01275E3F4FCE0101966F89788D8C
:100F4000A9010E94B307EF81F885E00FF11F10821D
:100F50002E960FB6F894DEBF0FBECDBFCF91DF91B6
:100F60001F910F9108952F923F924F925F926F922F
:100F70007F928F929F92AF92BF92CF92DF92EF9229
:100F8000FF920F931F93DF93CF93CDB7DEB72C97CC
:100F90000FB6F894DEBF0FBECDBF6C011B018A01F6
:100FA000FC0117821682838181FFD1C12E01089432
:100FB000411C511CF6019381F10193FD859193FF32
:100FC00081911F01882309F4BEC1853239F493FD54
:100FD000859193FF81911F01853229F490E0B6013C
:100FE0000E94D909E7CFEE24FF2420E02032B0F49C
:100FF0008B3269F08C3228F4803251F0833271F4F4
:101000000BC08D3239F0803349F421602CC022604E
:10101000246029C0286027C0206125C027FD2CC07E
:10102000382F30533A3098F426FF08C08E2D880FA1
:10103000E82EEE0CEE0CE80EE30E15C08F2D880F97
:10104000F82EFF0CFF0CF80EF30E20620CC08E324F
:1010500021F426FD78C1206406C08C3611F4206886
:1010600002C0883649F4F10193FD859193FF819187
:101070001F01882309F0BACF982F9554933018F0A8
:101080009052933028F40C5F1F4FFFE3F9830DC09B
:10109000833631F0833771F0833509F060C022C0A8
:1010A000F801808189830E5F1F4F420171E0A72EF6
:1010B000B12C16C062E0662E712C600E711EF80114
:1010C0008080918026FF03C06E2D70E002C06FEF1C
:1010D0007FEFC4012C870E94CE095C0183012C851F
:1010E0002F7717C052E0652E712C600E711EF8012B
:1010F0008080918026FF03C06E2D70E002C06FEFEC
:101100007FEFC4012C870E94C3095C012C852068F5
:10111000830123FD20C008C080E290E0B6012C8747
:101120000E94D909FA942C858F2D90E0A816B90653
:1011300098F311C0F40127FD859127FF81914F019C
:1011400090E0B6012C870E94D9092C85F110FA9401
:101150000894A108B108A114B10461F7F1C0843664
:1011600011F0893649F527FF08C0F80160817181C7
:10117000828193810C5F1F4F09C0F80160817181EA
:10118000882777FD8095982F0E5F1F4F4FE6B42E6E
:10119000B22297FF09C090958095709561957F4F19
:1011A0008F4F9F4FF0E8BF2AA2012AE030E00E9453
:1011B000050A782E741845C0853731F43FEEB32EFA
:1011C000B2222AE030E025C099EFB92EB2228F3644
:1011D000C1F0803720F4883509F0B5C00DC08037E4
:1011E00021F0883709F0AFC002C020E1B22AB4FE76
:1011F0000BC084E0B82A08C0B4FE09C0E6E0BE2AED
:1012000006C028E030E005C020E130E002C020E167
:1012100032E0B7FE08C0F80160817181828193815C
:101220000C5F1F4F07C0F8016081718180E090E082
:101230000E5F1F4FA2010E94050A782E7418FFE767
:10124000BF22B6FE0BC02EEFB2227E1438F4B4FEDD
:1012500007C0B2FC05C08FEEB82202C0A72C01C0A7
:10126000AE2C8B2D90E0B4FE0DC0FE01E70DF11DFC
:101270002081203319F4E9EEBE2209C0A394B2FE06
:1012800006C004C086789070009709F0A3948B2C58
:101290009924B3FC14C0B0FE0FC0AF1428F4E72C9F
:1012A000EF0CEA18AF2C08C0E72C06C080E290E0F3
:1012B000B6010E94D909A394AF14C0F304C0AF14BF
:1012C00010F4FA1801C0FF2484FE0FC080E390E000
:1012D000B6010E94D90982FE1FC081FE03C088E5C5
:1012E00090E010C088E790E00DC0C401867890704F
:1012F000009791F081FC02C080E201C08BE2B7FC54
:101300008DE290E0B6010E94D90906C080E390E02A
:10131000B6010E94D909EA947E14C0F37A94F201CE
:10132000E70DF11D808190E0B6010E94D909772078
:10133000A9F706C080E290E0B6010E94D909FA94AC
:10134000FF20C1F737CEF6012681378102C02FEF8B
:101350003FEFC9012C960FB6F894DEBF0FBECDBF8C
:10136000CF91DF911F910F91FF90EF90DF90CF9081
:10137000BF90AF909F908F907F906F905F904F90B5
:101380003F902F900895FC0105906150704001102E
:10139000D8F7809590958E0F9F1F0895FC0161509E
:1013A000704001900110D8F7809590958E0F9F1F87
:1013B00008950F931F93CF93DF938C01EB018B81E3
:1013C00081FF1BC082FF0DC02E813F818C819D81DA
:1013D0002817390764F4E881F9810193F983E883D8
:1013E00006C0E885F985802F0995009731F48E8134
:1013F0009F8101969F838E8302C00FEF1FEFC8016C
:10140000DF91CF911F910F910895FA01AA272830FB
:1014100051F1203181F1E8946F936E7F6E5F7F4FC1
:101420008F4F9F4FAF4FB1E03ED0B4E03CD0670F3D
:10143000781F891F9A1FA11D680F791F8A1F911D90
:10144000A11D6A0F711D811D911DA11D20D009F4E0
:1014500068943F912AE0269F11243019305D319322
:10146000DEF6CF010895462F4770405D4193B3E00B
:101470000FD0C9F7F6CF462F4F70405D4A3318F0B2
:10148000495D31FD4052419302D0A9F7EACFB4E063
:10149000A6959795879577956795BA95C9F700971B
:1014A0006105710508959B01AC010A2E06945795BC
:1014B000479537952795BA95C9F7620F731F841F13
:0A14C000951FA01D0895F894FFCFBA
:1014CA00647573743A302E30256420200064757375
:1014DA00743A302E256420200018012800D02501F6
:1014EA0000010000000000000000000001020203E9
:1014FA0003030304040404040404040505050505A0
:10150A00050505050505050505050506060606067C
:10151A000606060606060606060606060606060661
:10152A00060606060606060606060607070707074C
:10153A000707070707070707070707070707070731
:10154A000707070707070707070707070707070721
:10155A000707070707070707070707070707070711
:10156A0007070707070707070707070808080808FC
:10157A0008080808080808080808080808080808E1
:10158A0008080808080808080808080808080808D1
:10159A0008080808080808080808080808080808C1
:1015AA0008080808080808080808080808080808B1
:1015BA0008080808080808080808080808080808A1
:1015CA000808080808080808080808080808080891
:1015DA000808080808080808080808080808080881
:0C15EA000808080808080808080808009D
:00000001FF
