:020000040800F2
:1000000018090020C1010008571C00080919000840
:10001000551C0008F1020008ED2400080000000053
:100020000000000000000000000000007B1C000831
:10003000F302000800000000791C00087D1C000885
:10004000DB010008DB010008DB010008DB01000820
:10005000DB010008DB010008DB010008DB01000810
:10006000DB01000819040008DB010008DB010008BF
:10007000DB010008DB010008DB010008DB010008F0
:10008000DB010008DB010008DB010008DB010008E0
:10009000DB010008DB010008DB010008DB010008D0
:1000A000DB010008DB010008DB010008DB010008C0
:1000B000DB010008DB010008DB010008DB010008B0
:1000C000DB010008DB010008DB010008DB010008A0
:1000D000DB010008DB010008DB01000869220008E1
:1000E000DB010008DB010008DB010008DB01000880
:1000F000DB010008DB010008DB010008DB01000870
:10010000DB010008DB010008DB010008DB0100085F
:10011000DB010008DB010008DB010008711D00089D
:10012000DB010008DB010008DB010008DB0100083F
:10013000DB010008DB010008DB010008DB0100082F
:10014000DB010008DB010008DB010008DB0100081F
:10015000DB010008DB010008DB010008DB0100080F
:10016000DB010008DB010008DB010008DB010008FF
:10017000DB010008DB010008DB01000800000000D3
:10018000DB010008DB010008DB010008DB010008DF
:10019000DB010008DB010008DB010008DB010008CF
:1001A000DB010008DB010008DB010008DFF80CD0F0
:1001B00000F08CF800480047652500081809002069
:1001C0000648804706480047FEE7FEE7FEE7FEE7F1
:1001D000FEE7FEE7FEE7FEE7FEE7FEE71D1D00087F
:1001E000AD0100082DE9F05F0546002092469B46D0
:1001F00088460646814640241BE02846414647463D
:10020000224600F053F853465A46C01A914110D383
:1002100011461846224600F03AF82D1A67EB0108FD
:100220004F4622460120002100F031F817EB00096B
:100230004E41201EA4F10104DFDC484631462A4627
:100240004346BDE8F09F40EA01039B0703D009E065
:1002500008C9121F08C0042AFAD203E011F8013BB2
:1002600000F8013B521EF9D27047D2B201E000F80B
:10027000012B491EFBD270470022F6E710B513464A
:100280000A4604461946FFF7F0FF204610BD202A13
:1002900004DB203A00FA02F1002070479140C2F1DD
:1002A000200320FA03F3194390407047202A04DB0F
:1002B000203A21FA02F00021704721FA02F3D040DF
:1002C000C2F120029140084319467047064C074D81
:1002D00006E0E06840F0010394E807009847103416
:1002E000AC42F6D3FFF766FF4427000864270008F6
:1002F000FEE770472DE9F041044621B14FF400605C
:10030000E060C000A060E0690025002861D02846B8
:100310002368402619683A4A1140D4E902273A4333
:10032000024342F400700843186020680768012007
:1003300000F088F8206807602068466020684668FA
:10034000012000F07FF82068466020688560206802
:10035000C560216888694FF64172104040F0800006
:10036000886120688669012000F06CF82068866149
:100370002068C5612068C569012000F063F8206825
:10038000C561226802F5805290691E4908401E49E5
:1003900001439161206800F580508569012000F0DB
:1003A00051F8206800F5805085612068174900F5F4
:1003B00080500160206800F580500568012000F041
:1003C00041F8206800F580500560A069012803D03D
:1003D00009E04FF480609BE7206800F58050C16918
:1003E0000B4A1143C16160690A4982880A64027834
:1003F000D0F8010042EA00204864BDE8F081000026
:100400000F8120FF233FDEF8040020028020C1027C
:100410004000010000800240082000F053BA90F82C
:100420003510022903D08021416501207047052144
:1004300080F835100068016821F00101016000209A
:100440007047000070B5044600F034FB0546601CA0
:1004500002D004480078044400F02CFB401BA0426A
:10046000FAD370BD240000202DE9FC474FF00006B0
:100470000400B146009603D094F8440018B107E098
:100480000120BDE8FC8784F84560204600F0E2F8D2
:100490006648016841F480410160006800F48040D2
:1004A00001906348016821F4000101600168226A3B
:1004B00011430160206800F58050016841F001019E
:1004C000016000F0F7FA05464FF4FA7709E000BF43
:1004D00000F0F0FA401BB84203D9032004F8440F9F
:1004E00067E0206800F580500068C007F0D1206800
:1004F000006920F01C0500F0EDFC4E494E4A014415
:10050000914202D245F0080516E04C494C4A01449C
:10051000914202D245F00C050EE04A494A4A014494
:10052000914209D3494908444949884202D245F0D9
:10053000040501E045F01005206805614FF4004214
:100540000021204600F048F90125A8BBFF20FFF755
:1005500079FF606888B300F0ADFA804641F28837D1
:100560006A460121204600F0F5F800F0A3FAA0EB5E
:100570000800B84217D800984007F1D54FF48052D0
:100580000021204600F028F9B0B900F093FA804627
:100590006A460121204600F0DDF800F08BFAA0EB5E
:1005A0000800B8420AD901212046FFF7A3FE04F84B
:1005B000445F0320667064E724E018E0009880063A
:1005C000E6D56A461021204600F0C4F8D0B900985C
:1005D000410703D54FF40061E16000E0E660800769
:1005E00001D5A66019E04FF48040A06015E0E068F6
:1005F000A168C00840EA510082B20021204600F004
:10060000EBF830B101212046FFF774FE84F8445026
:1006100036E740F6FF70FFF715FF49462046FFF723
:1006200069FE84F8445000202BE700004438024063
:100630000438014000D3CEFEC0E1E40040F1E9FD02
:1006400040787D0100796CFC005A6202001F0AFAB2
:1006500080F0FA02F0B587B0044614216846FFF72F
:100660000BFE36492068884265D135480024016870
:1006700041F000710160016801F0007105910168AD
:1006800041F080610160016801F0806105910168BD
:1006900041F000610160016801F0006105910168AD
:1006A00041F004010160016801F004010591016855
:1006B00041F001010160016801F00101059101684B
:1006C00041F002010160016801F002010591016839
:1006D00041F0400101600068022500F040000590F3
:1006E0003220CDE9000502AA03260B2782E8D000BC
:1006F0006946144800F0F2F88620CDE9000502AA08
:10070000694682E8D000104800F0E8F82803CDE9F7
:10071000000502AA694682E8D0000C4800F0DEF825
:100720004FF42050CDE9000502AA694682E8D000C6
:10073000074800F0D3F807B0F0BD00000080024089
:10074000303802400008024000000240000402402D
:10075000001802402DE9F047044690F84400914605
:1007600082281DD0822084F84400226810694FF648
:10077000FF7500F01C03208A05EAC02018434FF4DF
:10078000F86303EA8111014321F0020040F0010502
:10079000156100F08FF9064601274FF4803810E00C
:1007A0000220BDE8F08700BF00F084F9801B4045BF
:1007B00005D304F8447F002060700320F1E720682F
:1007C0000569E807F0D12068406981B2C9F80010D6
:1007D00084F844700020E4E72DE9F041044690F8E5
:1007E000440042281ED0422084F84400236818693F
:1007F0004FF6FF7600F01C05208A06EAC020284349
:100800004FF4F86505EA8111014390B241F0030508
:1008100058612068056100F04DF9064601274FF444
:10082000803810E00220BDE8F08100BF00F042F9FE
:10083000801B404505D304F8447F002060700320EE
:10084000F1E720680569E807F0D184F84470EAE729
:1008500010B58AB0082820D1184C217818480029F2
:1008600021781CD0012918D12178039100F154017D
:1008700048300EC98DE80E0090E80E0004A801F083
:100880001DF80F48182204A94830FFF7DCFC0020AF
:1008900020700B484830006860600AB010BD0391BA
:1008A00000F1540148300EC98DE80E0090E80E00AA
:1008B00004A801F003F801202070EEE700000020FA
:1008C000B4040020044910B50A68024202D008604E
:1008D000FFF7BEFF10BD0000143C01402DE9F84FAA
:1008E000DFF890B100224FF001084FF0030A4FF0FB
:1008F0000F090BF1040E00BF0B6808FA02F4234045
:10090000A3426ED14D68022D01D0122D0ED1D50813
:1009100000EB850CDCF820505607F70E09FA07F6B5
:10092000B5430E69BE402E43CCF8206006685500E2
:100930000F790AFA05FC07F0030726EA0C06AF4018
:10094000374307604E68012E05D0022E03D0112ECA
:1009500001D0122E0ED18768CE6827EA0C07AE4070
:100960003E4386604668A6430C79C4F30014944065
:1009700034434460C4688E6824EA0C04AE402643C5
:10098000C6604C68E4006FD53B4C256845F4804553
:100990002560246822F0030504F480440094374C59
:1009A0002E19D6F8084895072F0F09FA07F5AC431A
:1009B000334DA84201D100252EE0324DA84201D18D
:1009C000012529E0304DA84201D1022524E02F4D18
:1009D000A84201D103251FE02D4DA84202D10425D4
:1009E0001AE041E02B4DA84201D1052514E02A4D23
:1009F000A84201D106250FE0284DA84201D10725C4
:100A00000AE0274DA84201D1082505E0254DA8425E
:100A100001D1092500E00A25BD402543C6F8085844
:100A2000DBF800405D464E689C43F60300D51C434E
:100A30002C60DEF8004075464E689C43B60300D536
:100A40001C432C600B4D08352C684E689C43F60205
:100A500000D51C432C60074D0C352C684E689C4318
:100A6000B60200D51C432C60521C102AFFF444AF80
:100A7000BDE8F88F003C014044380240003001409E
:100A8000000002400004024000080240000C024046
:100A9000001002400014024000180240001C0240F6
:100AA00000200240002402400AB18161704709041D
:100AB000FBE7000001488068704700002400002028
:100AC0000248816802781144816070472400002048
:100AD0000B4810B5016841F400710160016841F4F0
:100AE00080610160016841F480710160032000F0C1
:100AF0006DF8002000F006F800F024F8002010BD8A
:100B0000003C024070B50D4D04464FF47A712878D0
:100B1000B1FBF0F00A490968B1FBF0F000F0CAFB44
:100B200048B9102C07D200222146501E00F02EF8A2
:100B300000206C6070BD012070BD0000240000200A
:100B4000300000200A4808B5016841F48041016086
:100B5000006800F4804000900548001F016841F0E3
:100B600080510160006800F08050009008BD0000D6
:100B70004438024000F01F020121914040098000EA
:100B800000F1E020C0F8001170470000F0B40E4BF7
:100B90001B680C46C3F30223C3F10705042D00D9DB
:100BA0000425191D072901D2002300E0DB1E0126C0
:100BB00006FA05F1491E214099409E40761E1640D6
:100BC0003143F0BC01F048B80CED00E0064900F0FC
:100BD000070208684FF6FF03184040EA0220034A64
:100BE00010430860704700000CED00E00000FA05BB
:100BF000F0B58BB004004FF0000556D0032084F808
:100C0000B903204600F054F8206801F031FC04F1EB
:100C1000100128220F466846FFF715FB94E80F00E5
:100C200001F028FB0021206801F04AFC0126002089
:100C3000C5EBC50104EB810181F8396001F8385F2B
:100C4000CD80C8708860C8606D1C48610F2DEFD3DF
:100C500000214FF4827300BFC1EBC10204EB82029A
:100C600003EB810582F8F90182F8F811D18782F847
:100C7000FB01C2F80002C2F80402C2F80C022268AA
:100C80005051491C0F29E7D3282239466846FFF7FF
:100C9000DAFA94E80F0001F04BFB84F8B96320689E
:100CA00001F03AFB00200BB0F0BD0120FBE7000093
:100CB00030B587B0044614216846FFF7DDFA206896
:100CC000B0F1A04F30D119480024016841F0010172
:100CD00001600068164D00F0010005904FF4E850E7
:100CE00000900220CDE90104032003900A20049023
:100CF00069462846FFF7F2FD6815CDE9000469460C
:100D000028460294FFF7EAFD0848001D016841F0FB
:100D10008001016005481430016841F480410160A0
:100D2000006800F48040059007B030BD30380240C4
:100D3000000002402DE9F8431748016841F0805156
:100D400001600068154F00F08050012600903E645D
:100D5000FFF7B0FE05464FF47A78114C05E000BF6E
:100D6000FFF7A8FE401B40450DD86068C003F7D5CB
:100D70007E64FFF79FFE0546464607E0FFF79AFEB2
:100D8000401BB04202D90320BDE8F88360688003AD
:100D9000F4D50020F8E700004038024000000E4281
:100DA000007000402DE9F0470E46050065D0DFF8E1
:100DB0001481D8F80000F7B200F00F00B04207D25B
:100DC00088F80070D8F8000000F00F00B04254D14D
:100DD00028683D4C810712D5400703D5206840F4B0
:100DE000E05020602878000703D5206840F4604078
:100DF00020602068A96820F0F0000843206028786F
:100E0000C0072DD0304968680839012812D002285F
:100E100013D0032811D00968890700292DDA216829
:100E200021F0030101432160FFF744FE814641F2B6
:100E3000883A0EE009688903EFE709688901ECE761
:100E4000FFF738FEA0EB0901514502D90320BDE8A8
:100E5000F0872068696800F00C00B0EB810FEFD1DB
:100E6000D8F80010404601F00F01B14207D90770D1
:100E7000006800F00F00B04201D00120E7E72878B9
:100E8000400705D52068E96820F4E0500843206059
:100E90002878000706D52068296920F4604040EAD8
:100EA000C100206000F03CF82168084AC1F303113A
:100EB000515CC840064908600020FFF723FE00206F
:100EC000C5E70000003C0240083802402C2700081B
:100ED000300000200148006870470000300000200A
:100EE0000448054900680968044AC1F38221515C3D
:100EF000C840704730000020083802403C270008F6
:100F00000448054900680968044AC1F34231515C4C
:100F1000C840704730000020083802403C270008D5
:100F2000154810B5006810F00C02144813D0411099
:100F3000042A0FD0082A0ED10F4C241F22682368E0
:100F400002F03F025B0207D52068C0F38810A0FBC7
:100F5000010106E0084610BD2168C1F38811A1FB1C
:100F600000010023FFF73EF92168C1F30141491C4C
:100F70004900B0FBF1F010BD083802400024F40035
:100F80002DE9F84F050076D02878DFF8F8B2BE4C8E
:100F9000C00749D0DBF800105846C1F38101012990
:100FA00008D00068C0F3810002280AD1201D006823
:100FB000400206D52068800336D568680028E2D054
:100FC00032E06868B0F5803F10D0B0F5A02F2068FF
:100FD00010D020F480302060206820F48020206031
:100FE0006868A0B1FFF766FD06460CE0206840F493
:100FF0008030F4E740F480202060F7E7FFF75AFDE7
:10100000801B642873D820688003F7D50CE0FFF7B5
:1010100051FD064605E000BFFFF74CFD801B64282C
:10102000F0D820688003F7D42878DFF86082800742
:101030004FF000093ED5DBF80010584611F00C0FB8
:1010400009D00068C0F3810002280BD18D48001F31
:101050000068400206D42068800715D5E86801289A
:1010600009D111E0E868B8B10120C8F80000FFF725
:1010700021FD064605E002E1FFF71CFD801B02286A
:10108000C0D820688007F7D52068296920F0F800CB
:1010900040EAC10020600DE0C8F80090FFF70AFDAB
:1010A000064604E0FFF706FD801B02281FD82068D3
:1010B0008007F7D42878000722D5724E74486969F2
:1010C0006C3671B101210160FFF7F4FC074604E0C2
:1010D000FFF7F0FCC01B022809D830688007F7D55D
:1010E0000EE0C0F80090FFF7E5FC074605E083E05E
:1010F000FFF7E0FCC01B02287ED830688007F7D4D9
:101100002878400768D5DFF87CA100270AF1380A63
:10111000DAF80000C0000BD4DAF8001041F080517A
:10112000CAF80010DAF80000012700F080500090A3
:10113000584E3068C00510D4306840F4807030607C
:10114000FFF7B8FC009005E0FFF7B4FC0099401AE7
:10115000022851D83068C005F6D54A4EA8686836CE
:1011600001280FD00528306810D020F00100306031
:10117000306820F004003060A868B8B1FFF79AFC2E
:1011800000900FE0306840F00100F4E740F0040008
:101190003060F7E7FFF78EFC0099411A41F2883082
:1011A000814264D830688007F4D50EE0FFF782FCF6
:1011B000009007E0FFF77EFC0099411A41F2883069
:1011C000814254D830688007F4D42FB1DAF8001087
:1011D00021F08051CAF80010A869C0B3DBF80010F4
:1011E000C1F3810102294AD00228484607D0C8F835
:1011F0006000FFF75FFC00E039E005463AE0474653
:10120000C8F86000FFF756FC064604E0FFF752FC02
:10121000801B02282BD820688001F7D4D5E907016C
:101220000843A96A1C4A490802EB01416A6A41EA7B
:101230008211084395F82C1040EA01611148001F03
:10124000016001203866FFF735FC054605E014E033
:10125000FFF730FC401B022809D820688001F7D531
:101260000BE000BFFFF726FC401B022802D9032039
:10127000BDE8F88F20688001F4D40020F8E7012051
:10128000F6E70000083802400038024000004742FC
:10129000800E4742007000400000FFFF4FF0E02149
:1012A0000428086903D020F004000861704740F06A
:1012B0000400FAE710B5401EB0F1807F01D3012091
:1012C00010BD4FF0E02460610F21601700F0C4FCF6
:1012D0000020A06107202061002010BD70477047EA
:1012E00030B590F83820012A20D0012280F838202B
:1012F000022380F8393003685C6824F070045C6075
:1013000003685C680D682C435C6003689C6824F08B
:1013100080049C6003689C6849680C439C6080F86A
:101320003920002180F83810084630BD022030BD39
:1013300010B5040003D094F8390010B107E0012083
:1013400010BD002084F83800204600F00DF802207F
:1013500084F83900211D206800F010FD012084F878
:101360003900002010BD000008B500680649884219
:1013700008D10648016841F020010160006800F0D2
:101380002000009008BD00000014004040380240DA
:101390000168CA6842F00102CA600068016841F051
:1013A00001010160002070470168CA6822F0010253
:1013B000CA600068016A41F21112114207D1016A44
:1013C0009210114203D1016821F001010160002057
:1013D0007047704770B50446006801694FF000051A
:1013E000C943890715D4C168C943890711D4E91EC7
:1013F000016101202076206880698007204602D0A4
:10140000FFF7E7FF04E000F098F8204600F096F8B8
:10141000257620680169C943490717D4C168C943C3
:10142000490713D46FF0040101610220207620687F
:10143000806910F4407F204602D0FFF7CAFF04E025
:1014400000F07BF8204600F079F8257620680169E5
:10145000C943090716D4C168C943090712D46FF0FC
:1014600008010161042020762068C06980072046B9
:1014700002D0FFF7AEFF04E000F05FF8204600F076
:101480005DF8257620680169C943C90617D4C1688B
:10149000C943C90613D46FF01001016108202076FA
:1014A0002068C06910F4407F204602D0FFF791FF0A
:1014B00004E000F042F8204600F040F8257620686D
:1014C0000169C943C90708D1C168C943C90704D123
:1014D000891E0161204600F032F820680169C94385
:1014E000090609D4C168C943090605D46FF0800113
:1014F00001612046FFF7F2FE20680169C9434906F1
:1015000009D4C168C943490605D46FF0400101619F
:10151000204600F015F820680169C94389060BD4FC
:10152000C168C943890607D46FF0200101612046D4
:10153000BDE87040FFF7D3BE70BD7047704770477D
:101540007047704770B5026804461068D1685369E7
:1015500010F00F0F51D003F0010501F490763543E0
:101560005DD0C20705D0CA0503D5E26B42F0010287
:10157000E263420705D5DA0703D0E26B42F00202CC
:10158000E263820705D5DA0703D0E26B42F004027A
:10159000E263020705D5DA0703D0E26B42F00802E6
:1015A000E263E26B002A34D0800604D5880602D5B7
:1015B000204600F059FC20684069E16BC0F38010C0
:1015C00001F008010143204624D000F03FFC2068D0
:1015D000416949061AD5416921F040014161606BBA
:1015E000A0B11B490165606BFEF719FF002810D000
:1015F000606B016DBDE87040084783060FD58B0610
:101600000DD52046BDE8704000F02EBC2046FFF707
:1016100098FF70BDFFF795FF0020E06370BD0306E3
:1016200006D50B0604D52046BDE8704000F0B8BDD5
:101630004006F3D54806F1D5D168204621F0400197
:10164000D160202184F8391000F015F970BD000038
:101650003D1E000870B5040004D094F83900002540
:1016600010B106E0012070BD84F83850204600F02B
:1016700023F8242084F839002068C16821F400513F
:10168000C160204600F036FC2068016921F49041D9
:1016900001612068416921F02A0141612068C16827
:1016A00041F40051C160E563202084F8390084F8DA
:1016B0003A00002070BD000010B586B00446142129
:1016C0006846FEF7D9FD14492068884221D11348A5
:1016D000016841F480210160006800F480200590D9
:1016E0000E481038016841F0080101600068694641
:1016F00000F0080005904FF4407000900220019027
:101700000120029003200390072004900448FFF773
:10171000E5F806B010BD0000004800404038024027
:10172000000C024090F83A30202B1DD1D1B1CAB143
:1017300090F83830012B17D081628285C285002154
:10174000C163222280F83A2080F8381001684A6983
:1017500042F001024A610068C16841F49071C160C1
:101760000020704701207047022070473CB51149A6
:10177000114A6C46D1E90001CDE900010020A2F137
:101780000801135C255CAB4202D18B785B1C8B702B
:10179000401C0328F5DB8878032808D100208870D6
:1017A000D078312804D0322801D1022048703CBDC5
:1017B0000120FBE724270008080000202DE9F8435A
:1017C000044690F839001F4616460D46202850D191
:1017D000A5B19EB194F8380001284AD0012084F8C0
:1017E00038004FF00008C4F83C80212084F839000C
:1017F000FFF760F9A6848146E68426E00120BDE873
:10180000F883E08C401EE084A0684B46B0F5805F12
:101810004FF000024FF080012046009703D000F007
:10182000F0FCE8B90DE000F0ECFCC8B928882168AC
:10183000C0F308004860206908B16D1C05E0AD1CCC
:1018400003E0216815F8010B4860E08C0028D8D12E
:101850004B46002240212046009700F0D2FC08B100
:101860000320CCE7202084F8390084F83880002059
:10187000C5E70220C3E7704730B4DDE902454160A7
:101880000281C3600482002145610160214630BCB1
:101890001846AFF3008070B50C4605460122FFF7ED
:1018A00003F90A20FEF7CEFD002221462846FFF765
:1018B000FBF8BDE870403C20FEF7C4BD0FB410B586
:1018C00004469DF82400A8B19DF8240001280ED1FB
:1018D0000898FFF769FD08980068406A3A2190FB74
:1018E000F1F00390182203A92046FEF7ACFC10BCCF
:1018F0005DF814FB0899002009684862089810BC3C
:101900005DF814EBFFF744BDFEE7000010B5514C45
:10191000092877D2DFE800F0050C2834455B9C9C51
:101920007700012211462046FFF7BEF8002205E0AD
:10193000002201212046FFF7B7F8012202212046AC
:10194000FFF7B2F8002204212046FFF7ADF800228D
:1019500008212046FFF7A8F8002210212046FFF7B3
:10196000A3F8002220216EE0002201212046FFF78B
:101970009BF8002202212046FFF796F80122E2E7B9
:10198000002201212046FFF78FF800220221204685
:10199000FFF78AF8002204212046FFF785F801228C
:1019A000D6E7002201212046FFF77EF8002202211F
:1019B0002046FFF779F8002204212046FFF774F84B
:1019C000002208212046FFF76FF80122C5E7002218
:1019D00001212046FFF768F8002202212046FFF788
:1019E00063F8002204212046FFF75EF80022082158
:1019F0002046FFF759F8002210212046FFF754F83F
:101A00000122AFE724E0002201212046FFF74CF835
:101A1000002202212046FFF747F800220421204639
:101A2000FFF742F8002208212046FFF73DF8002288
:101A300010212046FFF738F8002220212046FFF72A
:101A400033F8012280212046BDE81040FFF72CB872
:101A500010BD0000000C02401CB510480E49802249
:101A6000016001214160002101828DF800108DF894
:101A70000120E1228DF802208DF804108DF803106A
:101A80008DF805106A46C0E90521C1614FF40001D7
:101A90000162FEF7E9FC1CBD008002404800002006
:101AA0002DE9F84F49480025016841F00401016023
:101AB000016801F004010091016841F080010160BA
:101AC000016801F080010091016841F001010160AD
:101AD000016801F001010091016841F0020101601B
:101AE000016801F002010091016841F00801016004
:101AF000016801F008010091016841F040010160B6
:101B00000068DFF8CC8000F04000009000224FF425
:101B100001714046FEF7C8FFDFF8B8904FF48147E7
:101B2000002239464846FEF7BFFFDFF8ACA000228E
:101B300040215046FEF7B8FF284C0820214620607F
:101B40002748C4E901054046FEF7C8FE04200126E7
:101B5000C4E900060220C4E9025021464046FEF7CF
:101B6000BDFE700320601F48C4E9010521464046C0
:101B7000FEF7B4FE70022060C4E9016521464046CC
:101B8000E560FEF7ABFE2760C4E9016521464846E3
:101B9000E560FEF7A3FE40202060C4E90165214610
:101BA0005046E560FEF79AFE8020C4E90005214614
:101BB0005046A560FEF792FE002211460920FEF76E
:101BC000E5FFBDE8F84F0920FEF7D4BF30380240EA
:101BD00000080240000402400018024034000020C7
:101BE00000003110000011100E4810B50C490160C2
:101BF0004FF4E1314160002181600C22C160C0E9F5
:101C000004128161C161FFF725FD002211462720E2
:101C1000FEF7BCFFBDE810402720FEF7ABBF000079
:101C200000480040CC00002009484FF0A0410222AB
:101C30000160042141600021C0E90321C0E90512CF
:101C40000122C0E907214162C0E90B21FEF7D0BFA4
:101C50000C010020FEE770470907090E002806DA8C
:101C600000F00F0000F1E02080F8141D704700F133
:101C7000E02080F80014704770477047FEF720BFDF
:101C800030B5244893B00025016841F080510160CF
:101C9000006800F0805011901F48016841F44041F5
:101CA00001600068022400F440401190012000907F
:101CB0004FF4A02001906005CDE90640082008906F
:101CC0004FF4B470CDE9090407200B906846FFF784
:101CD00057F9FFF72FF80CA90F2081E831004FF4D6
:101CE000A0500F90E002109005210CA8FFF75AF8C1
:101CF000FFF7F0F84FF47A71B0FBF1F0FFF7DAFA82
:101D00000420FFF7CBFA00221146501EFEF73EFFDB
:101D100013B030BD403802400070004010480168E8
:101D200041F4700101600F48016841F00101016058
:101D30000C4A00210832116002680B4B1A40026005
:101D4000031D0A4A1A60026822F4802202600548D4
:101D50000C30016002495806803908607047000065
:101D600088ED00E000380240FFFFF6FE103000244E
:101D70000148FFF72FBB000090000020F0B502687B
:101D8000234B244D244E254F254C4FF0804C984238
:101D900009D0604507D0A84205D0B04203D0B84270
:101DA00001D0A04204D122F0700E4A6842EA0E022D
:101DB00098421BD0604519D0A84217D0B04215D028
:101DC000B84213D0A04211D0164DA8420ED0164DE5
:101DD000A8420BD0154DA84208D0154DA84205D0F9
:101DE000144DA84202D0144DA84203D122F44075EC
:101DF000CA682A4302608A68C2620A68826298429C
:101E000001D0A04201D10969016301214161F0BD06
:101E1000000001400004004000080040000C0040A9
:101E200000040140004001400044014000480140DE
:101E300000180040001C00400020004010B5806BDE
:101E40000021C185C184FFF77CFB10BD0168CA6811
:101E500022F49072CA6001684A6922F001024A6164
:101E6000202180F83A10704710B590F83A102229D6
:101E700001D0022010BD8168B1F5805F11D00169E9
:101E8000002901681FD0496801F07F03816A4A1C5C
:101E900082620B70C18D491E0904090CC18518D0DE
:101EA00026E00269816A002A0268526805D0D2B22F
:101EB0000A80816A491C8162ECE7C2F308020A8049
:101EC000816A891CF7E74A68816A4B1C83620A7041
:101ED000E0E70168CA6822F49072CA6001684A6942
:101EE00022F001024A61202180F83A10FFF73EFCFF
:101EF000002010BD2DE9F04104460068016921F47D
:101F00004052E168114301612168C86849F20C62DE
:101F100090432369A268E5691A4363692B431A4316
:101F20000243CA602168486920F44072A0691043E6
:101F30004861E1696425B1F5004F9748974A2168E7
:101F40004FF032083FD0914201D081427CD1FEF760
:101F5000D7FF00EBC00101EB001061688900B0FB06
:101F6000F1F6FEF7CDFF00EBC00101EB0010616858
:101F70008900B0FBF1F0B0FBF5F06FF018014843B9
:101F800006EB800108EB0110B0FBF5F000F0F00665
:101F9000FEF7B6FF00EBC00101EB0010616889009D
:101FA000B0FBF1F0B0FBF5F006EB0016FEF7A8FF72
:101FB00000EBC00101EB001061688900B0FBF1F794
:101FC000FEF79EFFD2E0914201D081423DD1FEF763
:101FD00097FF00EBC00101EB001061684900B0FB06
:101FE000F1F0B0FBF5F00601FEF78AFF00EBC0014F
:101FF00001EB001061684900B0FBF1F7FEF780FFCC
:1020000000EBC00101EB001061684900B0FBF1F08A
:10201000B0FBF5F06FF01801484307EB800108EBC7
:10202000C100B0FBF5F000F0F80006EB4006FEF74B
:1020300067FF00EBC00101EB001061684900B0FBD5
:10204000F1F7FEF75DFF3CE055E0FEF749FF00EBDE
:10205000C00101EB001061684900B0FBF1F0B0FB7A
:10206000F5F00601FEF73CFF00EBC00101EB0010AC
:1020700061684900B0FBF1F7FEF732FF00EBC001E9
:1020800001EB001061684900B0FBF1F0B0FBF5F026
:102090006FF01801484307EB800108EBC100B0FB6B
:1020A000F5F000F0F80006EB4006FEF719FF00EB34
:1020B000C00101EB001061684900B0FBF1F7FEF7C9
:1020C0000FFF00EBC00101EB001061684900B0FB9D
:1020D000F1F0B0FBF5F06FF01801484307EB800119
:1020E00008EBC100B0FBF5F000F0070021683044B8
:1020F0008860BDE8F081FEF7F3FE00EBC00101EB64
:10210000001061688900B0FBF1F6FEF7E9FE00EB14
:10211000C00101EB001061688900B0FBF1F0B0FB79
:10212000F5F06FF01801484306EB800108EB011051
:10213000B0FBF5F000F0F006FEF7D2FE00EBC001B8
:1021400001EB001061688900B0FBF1F0B0FBF5F025
:1021500006EB0016FEF7C4FE00EBC00101EB001019
:1021600061688900B0FBF1F7FEF7BAFE00EBC00131
:1021700001EB001061688900B0FBF1F0B0FBF5F0F5
:102180006FF01801484307EB800108EB0110B0FB2A
:10219000F5F000F00F00A9E7001401400010014025
:1021A00090F83910212901D0022070478168B1F5DB
:1021B000805F016A0BD04A1C026202680978516094
:1021C000C18C491E0904090CC1840ED017E009888E
:1021D0000268C1F30801516001690029016A02D057
:1021E000491C0162ECE7891CFBE70168CA6822F020
:1021F0008002CA600068C16841F04001C1600020EF
:1022000070472DE9F041984617460E460446069D54
:102210001DE0681C1BD02DB1FEF74CFCA0EB0800A4
:10222000A84214D92068C16821F4D071C160206827
:10223000416921F001014161202084F8390084F8CE
:102240003A00002084F838000320BDE8F0812068BF
:10225000006836EA000004D00020B842D9D000203F
:10226000F3E70120F9E700000148FFF76BB9000030
:10227000CC00002070B50446049D06990D980129F4
:102280000CD0E06840F04000E060204600F028F804
:102290004FF48030A063012D16D01DE0A16B21F416
:1022A0008031A163E1680D4A1140E160E16821F4E9
:1022B0004011E160012803D1E06840F48010E06043
:1022C000204600F00DF8E6E7A06840F00600A060A8
:1022D000A06840F02000A060002070BDBFFFBDFFDF
:1022E00001220C4902E0521C8A420BD80369002BE0
:1022F000F9DA026942F001020261012204E0521C93
:102300008A4201D9032070470369DB07F7D1002017
:1023100070470000400D030010B5D0F8041841F0DC
:102320000201C0F804180320FEF78CF8002010BD4D
:102330002DE9F0470E460446DDE90A0A0025DDF8DE
:102340003C80089F5FEA0801A16B11D041F4002195
:10235000A1634FF00009C4F8009ED4F80018C4F837
:102360000018012807D0D4F8000840F0030007E067
:1023700041F40011ECE7D4F800080BB140F0010083
:10238000C4F800081021204600F088F8204600F02C
:1023900075F84846C4F81098C4F814984FF0FF3107
:1023A000C4F81818C4F81C984FF0904CFF230FE0A5
:1023B00004EB4511D1F80029002A02DAC1F800C95E
:1023C00001E0C1F80009C1F81009C1F808396D1C15
:1023D000AE42EDD800210FE004EB4112D2F8005BD1
:1023E000002D02DAC2F800CB01E0C2F8000BC2F8FF
:1023F000100BC2F8083B491C8E42EDD8D4F81018D7
:1024000021F48071C4F81018012F0AD11449C4F8BE
:102410003018D4F83018134A1143C4F83018D4F8DF
:102420003018A0616FF0804060611FB9A06940F072
:102430001000A061A0690C490843A061BAF1000F27
:1024400003D0A06940F00800A061B8F1010F03D1EA
:10245000A06906490843A0610020BDE8F08700009C
:10246000000180000300010000383C8004000040AF
:10247000816821F001018160002070470021102255
:102480000261054A491C914201D903207047036942
:10249000DB06F7D400207047400D03000022202304
:1024A00043EA811101610549521C8A4201D9032086
:1024B000704703699B06F7D400207047400D030066
:1024C00010B5C26822F0C042C260012901D021B11A
:1024D00007E0C16841F0005102E0C16841F080416D
:1024E000C1603220FDF7AEFF002010BDFEE702E024
:1024F00008C8121F08C1002AFAD17047704700208F
:1025000001E001C1121F002AFBD170472DE9F04103
:10251000104CFF200125C4E900050226C4E902563B
:1025200021460D48FEF7DAF9082020600B48002705
:10253000C4E90107DFF8288021464046FEF7CEF9BE
:102540000420E66084E8A10021464046BDE8F04151
:10255000FEF7C4B934000020000C02400000311026
:10256000000802401CB5FEF7B3FAFFF789FBFFF73E
:1025700097FAFFF771FAFFF737FBFFF755FB654C4A
:102580006348002520603A20C4E9010545F6A020F3
:10259000E0602046FEF7CCFE009569462046019596
:1025A000FEF79EFE04205C4DCDE9000429462B4633
:1025B000082204F26C40FFF75FF9FFF7A7FFDFF88E
:1025C0005C81574C4FF47A76771004212846FFF748
:1025D00062F953494F48042208313C30FFF7A2F812
:1025E0006078022847D16068A0F11F01042901D852
:1025F00000200AE0A0F11A01042901D8012004E01A
:10260000A0F11501042903D80220FFF77FF932E079
:10261000A0F1100104290CD80320FFF777F9304608
:10262000FDF710FF002208214046FEF73DFA304634
:102630001FE0A0F10B0104290CD80420FFF766F974
:102640003846FDF7FFFE002210214046FEF72CFA27
:1026500038460EE0801F0428B7D80520FFF756F94A
:10266000FA20FDF7EFFE002220214046FEF71CFA7B
:10267000FA20FDF7E7FE60780128A6D10820FFF7D1
:1026800045F960680A2801DAFA2006E0142801DA20
:10269000384602E01E2802DA3046FDF7D3FE00225B
:1026A00080214046FEF700FA60680A2801DAFA2025
:1026B00006E0142801DA384602E01E2802DA304625
:1026C000FDF7C0FE6268642192FBF1F314483033D9
:1026D0001030C37292FBF1F301FB13210A2291FB2C
:1026E000F2F33033037391FBF2F302FB1311303139
:1026F0004173632181736D21C173014605483346DF
:1027000010223C30FFF75AF83846FDF79BFE5CE795
:10271000001400409000002000080240000C02401D
:1027200000000020535720000000000000000000BF
:102730000000000001020304060708090000000071
:102740000102030464270008000000203400000098
:10275000EE2400089827000834000020E408000058
:10276000FE2400080002000000000000000000003D
:102770000000000064697374616E6365203A200094
:102780000000000000000000010000001000000038
:08279000000000000024F40029
:04000005080001AD41
:00000001FF
